{
  "contractName": "optimized_healthCare",
  "abi": [
    {
      "inputs": [],
      "payable": false,
      "stateMutability": "nonpayable",
      "type": "constructor"
    },
    {
      "anonymous": false,
      "inputs": [
        {
          "indexed": false,
          "internalType": "address",
          "name": "_doctor",
          "type": "address"
        },
        {
          "indexed": false,
          "internalType": "string",
          "name": "message",
          "type": "string"
        }
      ],
      "name": "doctorSignUp",
      "type": "event"
    },
    {
      "anonymous": false,
      "inputs": [
        {
          "indexed": false,
          "internalType": "address",
          "name": "patient_address",
          "type": "address"
        },
        {
          "indexed": false,
          "internalType": "string",
          "name": "message",
          "type": "string"
        },
        {
          "indexed": false,
          "internalType": "string",
          "name": "_doctor",
          "type": "string"
        },
        {
          "indexed": false,
          "internalType": "address",
          "name": "doctor_address",
          "type": "address"
        }
      ],
      "name": "grantDoctorAccess",
      "type": "event"
    },
    {
      "anonymous": false,
      "inputs": [
        {
          "indexed": false,
          "internalType": "address",
          "name": "_patient",
          "type": "address"
        },
        {
          "indexed": false,
          "internalType": "string",
          "name": "message",
          "type": "string"
        }
      ],
      "name": "patientSignUp",
      "type": "event"
    },
    {
      "anonymous": false,
      "inputs": [
        {
          "indexed": false,
          "internalType": "address",
          "name": "patient_address",
          "type": "address"
        },
        {
          "indexed": false,
          "internalType": "string",
          "name": "message",
          "type": "string"
        },
        {
          "indexed": false,
          "internalType": "string",
          "name": "_doctor",
          "type": "string"
        },
        {
          "indexed": false,
          "internalType": "address",
          "name": "doctor_address",
          "type": "address"
        }
      ],
      "name": "revokeDoctorAccess",
      "type": "event"
    },
    {
      "constant": false,
      "inputs": [
        {
          "internalType": "address",
          "name": "_id",
          "type": "address"
        },
        {
          "internalType": "string",
          "name": "_name",
          "type": "string"
        },
        {
          "internalType": "string",
          "name": "_location",
          "type": "string"
        }
      ],
      "name": "hospitalSignUp",
      "outputs": [],
      "payable": false,
      "stateMutability": "nonpayable",
      "type": "function"
    },
    {
      "constant": false,
      "inputs": [
        {
          "internalType": "string",
          "name": "_name",
          "type": "string"
        },
        {
          "internalType": "string",
          "name": "_contact",
          "type": "string"
        },
        {
          "internalType": "string",
          "name": "_gender",
          "type": "string"
        }
      ],
      "name": "signupPatient",
      "outputs": [],
      "payable": false,
      "stateMutability": "nonpayable",
      "type": "function"
    },
    {
      "constant": false,
      "inputs": [
        {
          "internalType": "address",
          "name": "_id",
          "type": "address"
        },
        {
          "internalType": "string",
          "name": "_name",
          "type": "string"
        },
        {
          "internalType": "string",
          "name": "_contact",
          "type": "string"
        },
        {
          "internalType": "string",
          "name": "_specialization",
          "type": "string"
        }
      ],
      "name": "signupDoctor",
      "outputs": [],
      "payable": false,
      "stateMutability": "nonpayable",
      "type": "function"
    },
    {
      "constant": false,
      "inputs": [
        {
          "internalType": "address",
          "name": "doctor_id",
          "type": "address"
        }
      ],
      "name": "grantAccessToDoctor",
      "outputs": [],
      "payable": false,
      "stateMutability": "nonpayable",
      "type": "function"
    },
    {
      "constant": false,
      "inputs": [
        {
          "internalType": "address",
          "name": "doctor_id",
          "type": "address"
        }
      ],
      "name": "revokeAccessFromDoctor",
      "outputs": [],
      "payable": false,
      "stateMutability": "nonpayable",
      "type": "function"
    },
    {
      "constant": false,
      "inputs": [
        {
          "internalType": "string",
          "name": "_file_name",
          "type": "string"
        },
        {
          "internalType": "string",
          "name": "_file_type",
          "type": "string"
        },
        {
          "internalType": "string",
          "name": "_file_hash",
          "type": "string"
        }
      ],
      "name": "addUserFiles",
      "outputs": [],
      "payable": false,
      "stateMutability": "nonpayable",
      "type": "function"
    },
    {
      "constant": true,
      "inputs": [
        {
          "internalType": "address",
          "name": "sender",
          "type": "address"
        }
      ],
      "name": "getUserFiles",
      "outputs": [
        {
          "components": [
            {
              "internalType": "string",
              "name": "file_name",
              "type": "string"
            },
            {
              "internalType": "string",
              "name": "file_type",
              "type": "string"
            },
            {
              "internalType": "string",
              "name": "file_hash",
              "type": "string"
            }
          ],
          "internalType": "struct optimized_healthCare.files[]",
          "name": "",
          "type": "tuple[]"
        }
      ],
      "payable": false,
      "stateMutability": "view",
      "type": "function"
    },
    {
      "constant": true,
      "inputs": [],
      "name": "getPatientInfo",
      "outputs": [
        {
          "internalType": "string",
          "name": "",
          "type": "string"
        },
        {
          "internalType": "address",
          "name": "",
          "type": "address"
        },
        {
          "internalType": "string",
          "name": "",
          "type": "string"
        },
        {
          "internalType": "bytes32[]",
          "name": "",
          "type": "bytes32[]"
        },
        {
          "internalType": "address[]",
          "name": "",
          "type": "address[]"
        },
        {
          "internalType": "string",
          "name": "",
          "type": "string"
        },
        {
          "internalType": "string",
          "name": "",
          "type": "string"
        }
      ],
      "payable": false,
      "stateMutability": "view",
      "type": "function"
    },
    {
      "constant": true,
      "inputs": [],
      "name": "getDoctorInfo",
      "outputs": [
        {
          "internalType": "string",
          "name": "",
          "type": "string"
        },
        {
          "internalType": "address",
          "name": "",
          "type": "address"
        },
        {
          "internalType": "address[]",
          "name": "",
          "type": "address[]"
        },
        {
          "internalType": "string",
          "name": "",
          "type": "string"
        },
        {
          "internalType": "string",
          "name": "",
          "type": "string"
        }
      ],
      "payable": false,
      "stateMutability": "view",
      "type": "function"
    },
    {
      "constant": true,
      "inputs": [
        {
          "internalType": "uint64",
          "name": "_adhaar_number",
          "type": "uint64"
        }
      ],
      "name": "checkDoctorInfo",
      "outputs": [
        {
          "internalType": "bool",
          "name": "",
          "type": "bool"
        },
        {
          "internalType": "address",
          "name": "",
          "type": "address"
        }
      ],
      "payable": false,
      "stateMutability": "view",
      "type": "function"
    },
    {
      "constant": true,
      "inputs": [
        {
          "internalType": "uint64",
          "name": "_adhaar_number",
          "type": "uint64"
        }
      ],
      "name": "checkPatientInfo",
      "outputs": [
        {
          "internalType": "bool",
          "name": "",
          "type": "bool"
        },
        {
          "internalType": "address",
          "name": "",
          "type": "address"
        }
      ],
      "payable": false,
      "stateMutability": "view",
      "type": "function"
    },
    {
      "constant": true,
      "inputs": [
        {
          "internalType": "address",
          "name": "pat",
          "type": "address"
        }
      ],
      "name": "getPatientInfoForDoctor",
      "outputs": [
        {
          "internalType": "string",
          "name": "",
          "type": "string"
        },
        {
          "internalType": "string",
          "name": "",
          "type": "string"
        },
        {
          "internalType": "address",
          "name": "",
          "type": "address"
        },
        {
          "components": [
            {
              "internalType": "string",
              "name": "file_name",
              "type": "string"
            },
            {
              "internalType": "string",
              "name": "file_type",
              "type": "string"
            },
            {
              "internalType": "string",
              "name": "file_hash",
              "type": "string"
            }
          ],
          "internalType": "struct optimized_healthCare.files[]",
          "name": "",
          "type": "tuple[]"
        }
      ],
      "payable": false,
      "stateMutability": "view",
      "type": "function"
    },
    {
      "constant": true,
      "inputs": [],
      "name": "getHospitalInfo",
      "outputs": [
        {
          "internalType": "address",
          "name": "",
          "type": "address"
        },
        {
          "internalType": "string",
          "name": "",
          "type": "string"
        },
        {
          "internalType": "string",
          "name": "",
          "type": "string"
        }
      ],
      "payable": false,
      "stateMutability": "view",
      "type": "function"
    },
    {
      "constant": true,
      "inputs": [],
      "name": "getOwnerInfo",
      "outputs": [
        {
          "internalType": "address",
          "name": "",
          "type": "address"
        }
      ],
      "payable": false,
      "stateMutability": "view",
      "type": "function"
    },
    {
      "constant": false,
      "inputs": [
        {
          "internalType": "address",
          "name": "_user",
          "type": "address"
        },
        {
          "internalType": "address",
          "name": "_patient",
          "type": "address"
        }
      ],
      "name": "hospitalGrantAccess",
      "outputs": [],
      "payable": false,
      "stateMutability": "nonpayable",
      "type": "function"
    },
    {
      "constant": false,
      "inputs": [
        {
          "internalType": "address",
          "name": "_id",
          "type": "address"
        },
        {
          "internalType": "string",
          "name": "_name",
          "type": "string"
        },
        {
          "internalType": "string",
          "name": "_location",
          "type": "string"
        }
      ],
      "name": "addHospital",
      "outputs": [],
      "payable": false,
      "stateMutability": "nonpayable",
      "type": "function"
    },
    {
      "constant": false,
      "inputs": [
        {
          "internalType": "address",
          "name": "_id",
          "type": "address"
        },
        {
          "internalType": "string",
          "name": "_name",
          "type": "string"
        }
      ],
      "name": "regInsuranceComp",
      "outputs": [],
      "payable": false,
      "stateMutability": "nonpayable",
      "type": "function"
    },
    {
      "constant": true,
      "inputs": [],
      "name": "getInsuranceCompInfo",
      "outputs": [
        {
          "internalType": "address",
          "name": "",
          "type": "address"
        },
        {
          "internalType": "string",
          "name": "",
          "type": "string"
        },
        {
          "internalType": "address[]",
          "name": "",
          "type": "address[]"
        }
      ],
      "payable": false,
      "stateMutability": "view",
      "type": "function"
    },
    {
      "constant": false,
      "inputs": [
        {
          "internalType": "address",
          "name": "_insuranceComp",
          "type": "address"
        },
        {
          "internalType": "address",
          "name": "_pat",
          "type": "address"
        }
      ],
      "name": "addPatientToInsuranceComp",
      "outputs": [],
      "payable": false,
      "stateMutability": "nonpayable",
      "type": "function"
    },
    {
      "constant": false,
      "inputs": [
        {
          "internalType": "address",
          "name": "_doc",
          "type": "address"
        },
        {
          "internalType": "string",
          "name": "_name",
          "type": "string"
        },
        {
          "internalType": "string",
          "name": "_DOB",
          "type": "string"
        },
        {
          "internalType": "uint24",
          "name": "_pincode",
          "type": "uint24"
        },
        {
          "internalType": "uint64",
          "name": "_adhaar_number",
          "type": "uint64"
        },
        {
          "internalType": "string",
          "name": "_contact",
          "type": "string"
        },
        {
          "internalType": "string",
          "name": "_gender",
          "type": "string"
        }
      ],
      "name": "addDoctorAdhaarInfo",
      "outputs": [],
      "payable": false,
      "stateMutability": "nonpayable",
      "type": "function"
    },
    {
      "constant": false,
      "inputs": [
        {
          "internalType": "address",
          "name": "_pat",
          "type": "address"
        },
        {
          "internalType": "string",
          "name": "_name",
          "type": "string"
        },
        {
          "internalType": "string",
          "name": "_DOB",
          "type": "string"
        },
        {
          "internalType": "uint24",
          "name": "_pincode",
          "type": "uint24"
        },
        {
          "internalType": "uint64",
          "name": "_adhaar_number",
          "type": "uint64"
        },
        {
          "internalType": "string",
          "name": "_contact",
          "type": "string"
        },
        {
          "internalType": "string",
          "name": "_gender",
          "type": "string"
        }
      ],
      "name": "addPatientAdhaarInfo",
      "outputs": [],
      "payable": false,
      "stateMutability": "nonpayable",
      "type": "function"
    }
  ],
  "bytecode": "0x608060405234801561001057600080fd5b5060008054600160a060020a03191673f555e841808055ffbc898cb9c334d9df127386a517905561582280620000476000396000f3fe608060405234801561001057600080fd5b5060043610610194576000357c010000000000000000000000000000000000000000000000000000000090048063828566fc116100f5578063ae2ed42f116100a9578063c981893011610083578063c98189301461032b578063facf83231461033e578063fe59cc1a1461035357610194565b8063ae2ed42f146102da578063b380f5c6146102fb578063c4fa7adb1461031457610194565b80638f087a1c116100da5780638f087a1c146102a157806397f7f06d146102b4578063ab9cff18146102c757610194565b8063828566fc1461027b578063859287b11461028e57610194565b8063326df6641161014c5780633b17c592116101315780633b17c5921461023e578063405b8af014610255578063629e559d1461026857610194565b8063326df664146102105780633b0e67ec1461022b57610194565b80632279f6f81161017d5780632279f6f8146101d75780632ae48e40146101ea5780632cecb523146101fd57610194565b80631c8e251c146101995780631fc37922146101ae575b600080fd5b6101ac6101a7366004614d56565b610376565b005b6101c16101bc366004614d56565b610a9a565b6040516101ce919061554b565b60405180910390f35b6101ac6101e5366004614f24565b610cd2565b6101ac6101f8366004615020565b610fc0565b6101ac61020b366004614d7c565b611057565b6102186114bf565b6040516101ce97969594939291906155dc565b6101ac610239366004614dfe565b611c2f565b610246611e70565b6040516101ce939291906154c4565b6101ac610263366004614e7b565b611fbc565b6101ac610276366004614d56565b6122f5565b6101ac610289366004614dfe565b6129b1565b6101ac61029c366004614db6565b612b3e565b6101ac6102af366004614f24565b612d30565b6101ac6102c2366004614d7c565b612ffd565b6101ac6102d5366004615020565b6130a0565b6102ed6102e8366004615058565b6133ff565b6040516101ce92919061555c565b61030361393e565b6040516101ce959493929190615577565b61031c613e9c565b6040516101ce939291906154f8565b6102ed610339366004615058565b61400e565b61034661445d565b6040516101ce9190615436565b610366610361366004614d56565b614486565b6040516101ce949392919061566b565b3361037f614a58565b600160a060020a03821660009081526002602081815260409283902083518154610120601f60001960018416156101009081029190910190931696909604958601859004909402820184019095529384018381529092849284919084018282801561042b5780601f106104005761010080835404028352916020019161042b565b820191906000526020600020905b81548152906001019060200180831161040e57829003601f168201915b50505050508152602001600182018054600181600116156101000203166002900480601f0160208091040260200160405190810160405280929190818152602001828054600181600116156101000203166002900480156104cd5780601f106104a2576101008083540402835291602001916104cd565b820191906000526020600020905b8154815290600101906020018083116104b057829003601f168201915b505050918352505060028281015467ffffffffffffffff811660208085019190915268010000000000000000909104600160a060020a031660408085019190915260038501805482516101006001831615026000190190911694909404601f8101849004840285018401909252818452606090940193918301828280156105955780601f1061056a57610100808354040283529160200191610595565b820191906000526020600020905b81548152906001019060200180831161057857829003601f168201915b505050918352505060048201805460408051602060026001851615610100026000190190941693909304601f81018490048402820184019092528181529382019392918301828280156106295780601f106105fe57610100808354040283529160200191610629565b820191906000526020600020905b81548152906001019060200180831161060c57829003601f168201915b505050505081526020016005820180548060200260200160405190810160405280929190818152602001828054801561068157602002820191906000526020600020905b81548152602001906001019080831161066d575b50505050508152602001600682018054806020026020016040519081016040528092919081815260200182805480156106e357602002820191906000526020600020905b8154600160a060020a031681526001909101906020018083116106c5575b50505050508152505090506000600160a060020a03168160600151600160a060020a03161161071157600080fd5b8261071a614ab0565b600160a060020a0382166000908152600160208181526040928390208351815460029481161561010002600019011693909304601f8101839004909202830160e090810190945260c0830182815292939092849290918491908401828280156107c45780601f10610799576101008083540402835291602001916107c4565b820191906000526020600020905b8154815290600101906020018083116107a757829003601f168201915b5050509183525050600182810154600160a060020a0381166020808501919091527401000000000000000000000000000000000000000090910467ffffffffffffffff166040808501919091526002808601805483516101009682161596909602600019011691909104601f8101849004840285018401909252818452606090940193918301828280156108995780601f1061086e57610100808354040283529160200191610899565b820191906000526020600020905b81548152906001019060200180831161087c57829003601f168201915b505050918352505060038201805460408051602060026001851615610100026000190190941693909304601f810184900484028201840190925281815293820193929183018282801561092d5780601f106109025761010080835404028352916020019161092d565b820191906000526020600020905b81548152906001019060200180831161091057829003601f168201915b505050505081526020016004820180548060200260200160405190810160405280929190818152602001828054801561098f57602002820191906000526020600020905b8154600160a060020a03168152600190910190602001808311610971575b50505050508152505090506000600160a060020a03168160200151600160a060020a0316116109bd57600080fd5b336000818152600260209081526040808320600160a060020a038a16808552600180855283862060068401805480840180835591895287892001805473ffffffffffffffffffffffffffffffffffffffff19908116861790915589895260038852868920948952938752858820805461ffff191661ffff8316179055600482018054938401815588529590962001805490911686179055905190937fe239c4e608cb32aaf8ef7214f811e28ea27c91cad9f719be74579c18fc2e983191610a88919085908c90615463565b60405180910390a15050505050505050565b600160a060020a0381166000908152600560209081526040808320805482518185028101850190935280835260609492939192909184015b82821015610cc75760008481526020908190206040805160038602909201805460026001821615610100026000190190911604601f8101859004909402830160809081019092526060830184815292939092849290918491840182828015610b7b5780601f10610b5057610100808354040283529160200191610b7b565b820191906000526020600020905b815481529060010190602001808311610b5e57829003601f168201915b50505050508152602001600182018054600181600116156101000203166002900480601f016020809104026020016040519081016040528092919081815260200182805460018160011615610100020316600290048015610c1d5780601f10610bf257610100808354040283529160200191610c1d565b820191906000526020600020905b815481529060010190602001808311610c0057829003601f168201915b5050509183525050600282810180546040805160206001841615610100026000190190931694909404601f81018390048302850183019091528084529381019390830182828015610caf5780601f10610c8457610100808354040283529160200191610caf565b820191906000526020600020905b815481529060010190602001808311610c9257829003601f168201915b50505050508152505081526020019060010190610ad2565b505050509050919050565b610cda614af9565b600160a060020a03888116600090815260096020908152604091829020825160a081018452815494851681527401000000000000000000000000000000000000000090940467ffffffffffffffff1684830152600180820180548551600261010094831615949094026000190190911692909204601f81018590048502830185018652808352929486019391929091830182828015610dba5780601f10610d8f57610100808354040283529160200191610dba565b820191906000526020600020905b815481529060010190602001808311610d9d57829003601f168201915b5050509183525050600282810180546040805160206001841615610100026000190190931694909404601f81018390048302850183019091528084529381019390830182828015610e4c5780601f10610e2157610100808354040283529160200191610e4c565b820191906000526020600020905b815481529060010190602001808311610e2f57829003601f168201915b505050505081526020016003820160009054906101000a900462ffffff1662ffffff1662ffffff168152505090506040518060a0016040528089600160a060020a031681526020018567ffffffffffffffff1681526020018881526020018781526020018662ffffff16815250600960008a600160a060020a0316600160a060020a0316815260200190815260200160002060008201518160000160006101000a815481600160a060020a030219169083600160a060020a0316021790555060208201518160000160146101000a81548167ffffffffffffffff021916908367ffffffffffffffff1602179055506040820151816001019080519060200190610f56929190614b40565b5060608201518051610f72916002840191602090910190614b40565b5060808201518160030160006101000a81548162ffffff021916908362ffffff160217905550905050610fb688888560405180602001604052806000815250611fbc565b5050505050505050565b336000908152600560209081526040808320815160608101835287815280840187905291820185905280546001810180835591855293839020825180519295939460039094029091019261101992849290910190614b40565b5060208281015180516110329260018501920190614b40565b506040820151805161104e916002840191602090910190614b40565b50505050505050565b80611060614a58565b600160a060020a03821660009081526002602081815260409283902083518154610120601f60001960018416156101009081029190910190931696909604958601859004909402820184019095529384018381529092849284919084018282801561110c5780601f106110e15761010080835404028352916020019161110c565b820191906000526020600020905b8154815290600101906020018083116110ef57829003601f168201915b50505050508152602001600182018054600181600116156101000203166002900480601f0160208091040260200160405190810160405280929190818152602001828054600181600116156101000203166002900480156111ae5780601f10611183576101008083540402835291602001916111ae565b820191906000526020600020905b81548152906001019060200180831161119157829003601f168201915b505050918352505060028281015467ffffffffffffffff811660208085019190915268010000000000000000909104600160a060020a031660408085019190915260038501805482516101006001831615026000190190911694909404601f8101849004840285018401909252818452606090940193918301828280156112765780601f1061124b57610100808354040283529160200191611276565b820191906000526020600020905b81548152906001019060200180831161125957829003601f168201915b505050918352505060048201805460408051602060026001851615610100026000190190941693909304601f810184900484028201840190925281815293820193929183018282801561130a5780601f106112df5761010080835404028352916020019161130a565b820191906000526020600020905b8154815290600101906020018083116112ed57829003601f168201915b505050505081526020016005820180548060200260200160405190810160405280929190818152602001828054801561136257602002820191906000526020600020905b81548152602001906001019080831161134e575b50505050508152602001600682018054806020026020016040519081016040528092919081815260200182805480156113c457602002820191906000526020600020905b8154600160a060020a031681526001909101906020018083116113a6575b50505050508152505090506000600160a060020a03168160600151600160a060020a0316116113f257600080fd5b600160a060020a03808516600090815260016020818152604080842088861685526002909252909220908201549192909116156114b7576006810180546001818101808455600093845260208085209093018054600160a060020a03808d1673ffffffffffffffffffffffffffffffffffffffff1992831681179093558b16808752600386526040808820938852928652918620805461ffff90941661ffff199094169390931790925560048701805493840181558552929093200180549092161790555b505050505050565b606060006060806060806060336114d4614a58565b600160a060020a03821660009081526002602081815260409283902083518154610120601f6000196001841615610100908102919091019093169690960495860185900490940282018401909552938401838152909284928491908401828280156115805780601f1061155557610100808354040283529160200191611580565b820191906000526020600020905b81548152906001019060200180831161156357829003601f168201915b50505050508152602001600182018054600181600116156101000203166002900480601f0160208091040260200160405190810160405280929190818152602001828054600181600116156101000203166002900480156116225780601f106115f757610100808354040283529160200191611622565b820191906000526020600020905b81548152906001019060200180831161160557829003601f168201915b505050918352505060028281015467ffffffffffffffff811660208085019190915268010000000000000000909104600160a060020a031660408085019190915260038501805482516101006001831615026000190190911694909404601f8101849004840285018401909252818452606090940193918301828280156116ea5780601f106116bf576101008083540402835291602001916116ea565b820191906000526020600020905b8154815290600101906020018083116116cd57829003601f168201915b505050918352505060048201805460408051602060026001851615610100026000190190941693909304601f810184900484028201840190925281815293820193929183018282801561177e5780601f106117535761010080835404028352916020019161177e565b820191906000526020600020905b81548152906001019060200180831161176157829003601f168201915b50505050508152602001600582018054806020026020016040519081016040528092919081815260200182805480156117d657602002820191906000526020600020905b8154815260200190600101908083116117c2575b505050505081526020016006820180548060200260200160405190810160405280929190818152602001828054801561183857602002820191906000526020600020905b8154600160a060020a0316815260019091019060200180831161181a575b50505050508152505090506000600160a060020a03168160600151600160a060020a03161161186657600080fd5b61186e614a58565b3360009081526002602081815260409283902083518154610120601f6000196001841615610100908102919091019093169690960495860185900490940282018401909552938401838152909284928491908401828280156119115780601f106118e657610100808354040283529160200191611911565b820191906000526020600020905b8154815290600101906020018083116118f457829003601f168201915b50505050508152602001600182018054600181600116156101000203166002900480601f0160208091040260200160405190810160405280929190818152602001828054600181600116156101000203166002900480156119b35780601f10611988576101008083540402835291602001916119b3565b820191906000526020600020905b81548152906001019060200180831161199657829003601f168201915b505050918352505060028281015467ffffffffffffffff811660208085019190915268010000000000000000909104600160a060020a031660408085019190915260038501805482516101006001831615026000190190911694909404601f810184900484028501840190925281845260609094019391830182828015611a7b5780601f10611a5057610100808354040283529160200191611a7b565b820191906000526020600020905b815481529060010190602001808311611a5e57829003601f168201915b505050918352505060048201805460408051602060026001851615610100026000190190941693909304601f8101849004840282018401909252818152938201939291830182828015611b0f5780601f10611ae457610100808354040283529160200191611b0f565b820191906000526020600020905b815481529060010190602001808311611af257829003601f168201915b5050505050815260200160058201805480602002602001604051908101604052809291908181526020018280548015611b6757602002820191906000526020600020905b815481526020019060010190808311611b53575b5050505050815260200160068201805480602002602001604051908101604052809291908181526020018280548015611bc957602002820191906000526020600020905b8154600160a060020a03168152600190910190602001808311611bab575b50505050508152505090506000600160a060020a03168160600151600160a060020a031611611bf757600080fd5b80516060820151602083015160c084015160e0850151608086015160a090960151949f939e50919c509a509850919650945092505050565b600054600160a060020a03163314611c4657600080fd5b611c4e614bbe565b600160a060020a03848116600090815260066020908152604091829020825160608101845281549094168452600180820180548551600261010094831615949094026000190190911692909204601f8101859004850283018501909552848252919385840193919291830182828015611d085780601f10611cdd57610100808354040283529160200191611d08565b820191906000526020600020905b815481529060010190602001808311611ceb57829003601f168201915b5050509183525050600282810180546040805160206001841615610100026000190190931694909404601f81018390048302850183019091528084529381019390830182828015611d9a5780601f10611d6f57610100808354040283529160200191611d9a565b820191906000526020600020905b815481529060010190602001808311611d7d57829003601f168201915b505050919092525050815191925050600160a060020a031615611dbc57600080fd5b604051611dc89061542b565b604051809103902083604051602001611de1919061541f565b604051602081830303815290604052805190602001201415611e0257600080fd5b60408051606081018252600160a060020a038681168083526020808401888152848601889052600092835260068252949091208351815473ffffffffffffffffffffffffffffffffffffffff1916931692909217825592518051929391926110329260018501920190614b40565b6000606080611e7d614bbe565b3360009081526007602090815260409182902082516060810184528154600160a060020a03168152600180830180548651600261010094831615949094026000190190911692909204601f8101869004860283018601909652858252919492938581019391929190830182828015611f365780601f10611f0b57610100808354040283529160200191611f36565b820191906000526020600020905b815481529060010190602001808311611f1957829003601f168201915b5050505050815260200160038201805480602002602001604051908101604052809291908181526020018280548015611f9857602002820191906000526020600020905b8154600160a060020a03168152600190910190602001808311611f7a575b50505091909252505081516020830151604090930151909792965094509092505050565b600160a060020a0384166000908152600160205260409020611fdc614af9565b600160a060020a03868116600090815260096020908152604091829020825160a081018452815494851681527401000000000000000000000000000000000000000090940467ffffffffffffffff1684830152600180820180548551600261010094831615949094026000190190911692909204601f810185900485028301850186528083529294860193919290918301828280156120bc5780601f10612091576101008083540402835291602001916120bc565b820191906000526020600020905b81548152906001019060200180831161209f57829003601f168201915b5050509183525050600282810180546040805160206001841615610100026000190190931694909404601f8101839004830285018301909152808452938101939083018282801561214e5780601f106121235761010080835404028352916020019161214e565b820191906000526020600020905b81548152906001019060200180831161213157829003601f168201915b50505091835250506003919091015462ffffff166020918201526040805160c081018252888152600160a060020a038a168184018190528484015167ffffffffffffffff1682840152606082018990526080820188905282516000808252818601855260a0840191909152908152600184529190912081518051949550919390926121dd928492910190614b40565b50602082810151600183018054604086015167ffffffffffffffff1674010000000000000000000000000000000000000000027fffffffff0000000000000000ffffffffffffffffffffffffffffffffffffffff600160a060020a0390941673ffffffffffffffffffffffffffffffffffffffff1990921691909117929092169190911790556060830151805161227a9260028501920190614b40565b5060808201518051612296916003840191602090910190614b40565b5060a082015180516122b2916004840191602090910190614be8565b509050507fdd0aa1d3beead09f31cc046643e0d63829e7c7f43e532c2523d978bc9c3bfb33866040516122e5919061552c565b60405180910390a1505050505050565b336122fe614a58565b600160a060020a03821660009081526002602081815260409283902083518154610120601f6000196001841615610100908102919091019093169690960495860185900490940282018401909552938401838152909284928491908401828280156123aa5780601f1061237f576101008083540402835291602001916123aa565b820191906000526020600020905b81548152906001019060200180831161238d57829003601f168201915b50505050508152602001600182018054600181600116156101000203166002900480601f01602080910402602001604051908101604052809291908181526020018280546001816001161561010002031660029004801561244c5780601f106124215761010080835404028352916020019161244c565b820191906000526020600020905b81548152906001019060200180831161242f57829003601f168201915b505050918352505060028281015467ffffffffffffffff811660208085019190915268010000000000000000909104600160a060020a031660408085019190915260038501805482516101006001831615026000190190911694909404601f8101849004840285018401909252818452606090940193918301828280156125145780601f106124e957610100808354040283529160200191612514565b820191906000526020600020905b8154815290600101906020018083116124f757829003601f168201915b505050918352505060048201805460408051602060026001851615610100026000190190941693909304601f81018490048402820184019092528181529382019392918301828280156125a85780601f1061257d576101008083540402835291602001916125a8565b820191906000526020600020905b81548152906001019060200180831161258b57829003601f168201915b505050505081526020016005820180548060200260200160405190810160405280929190818152602001828054801561260057602002820191906000526020600020905b8154815260200190600101908083116125ec575b505050505081526020016006820180548060200260200160405190810160405280929190818152602001828054801561266257602002820191906000526020600020905b8154600160a060020a03168152600190910190602001808311612644575b50505050508152505090506000600160a060020a03168160600151600160a060020a03161161269057600080fd5b336000908152600360209081526040808320600160a060020a038716845290915290205461ffff166126c157600080fd5b336000818152600360209081526040808320600160a060020a038816808552908352818420805461ffff19169055938352600282528083209383526001909152812060068301549091805b8261ffff168161ffff1610156127645787600160a060020a0316856006018261ffff168154811061273957fe5b600091825260209091200154600160a060020a0316141561275c57809150612764565b60010161270c565b505b6001820361ffff168161ffff1610156127f957836006018160010161ffff168154811061278f57fe5b600091825260209091200154600685018054600160a060020a039092169161ffff84169081106127bb57fe5b6000918252602090912001805473ffffffffffffffffffffffffffffffffffffffff1916600160a060020a0392909216919091179055600101612766565b8360060180548061280657fe5b6000828152602081208201600019908101805473ffffffffffffffffffffffffffffffffffffffff19169055909101909155600484015492509050805b8261ffff168161ffff16101561289b5733600160a060020a0316846004018261ffff168154811061287057fe5b600091825260209091200154600160a060020a031614156128935780915061289b565b600101612843565b505b6001820361ffff168161ffff16101561293057826004018160010161ffff16815481106128c657fe5b600091825260209091200154600484018054600160a060020a039092169161ffff84169081106128f257fe5b6000918252602090912001805473ffffffffffffffffffffffffffffffffffffffff1916600160a060020a039290921691909117905560010161289d565b8260040180548061293d57fe5b6000828152602090208101600019908101805473ffffffffffffffffffffffffffffffffffffffff191690550190556040517f212bcbf580385b870fe82b11fdd99334c16d187419727ccfb2b89aea2f872785906129a090339086908b906154a5565b60405180910390a150505050505050565b600054600160a060020a031633146129c857600080fd5b6129d0614bbe565b600160a060020a03848116600090815260066020908152604091829020825160608101845281549094168452600180820180548551600261010094831615949094026000190190911692909204601f8101859004850283018501909552848252919385840193919291830182828015612a8a5780601f10612a5f57610100808354040283529160200191612a8a565b820191906000526020600020905b815481529060010190602001808311612a6d57829003601f168201915b5050509183525050600282810180546040805160206001841615610100026000190190931694909404601f81018390048302850183019091528084529381019390830182828015612b1c5780601f10612af157610100808354040283529160200191612b1c565b820191906000526020600020905b815481529060010190602001808311612aff57829003601f168201915b505050919092525050815191925050600160a060020a031615611e0257600080fd5b600054600160a060020a03163314612b5557600080fd5b612b5d614bbe565b600160a060020a03838116600090815260076020908152604091829020825160608101845281549094168452600180820180548551600261010094831615949094026000190190911692909204601f8101859004850283018501909552848252919385840193919291830182828015612c175780601f10612bec57610100808354040283529160200191612c17565b820191906000526020600020905b815481529060010190602001808311612bfa57829003601f168201915b5050505050815260200160038201805480602002602001604051908101604052809291908181526020018280548015612c7957602002820191906000526020600020905b8154600160a060020a03168152600190910190602001808311612c5b575b505050919092525050815191925050600160a060020a031615612c9b57600080fd5b60408051606081018252600160a060020a0385811680835260208084018781528551600080825281840188528688019190915292835260078252949091208351815473ffffffffffffffffffffffffffffffffffffffff191693169290921782559251805192939192612d149260018501920190614b40565b50604082015180516114b7916003840191602090910190614be8565b612d38614af9565b600160a060020a03888116600090815260086020908152604091829020825160a081018452815494851681527401000000000000000000000000000000000000000090940467ffffffffffffffff1684830152600180820180548551600261010094831615949094026000190190911692909204601f81018590048502830185018652808352929486019391929091830182828015612e185780601f10612ded57610100808354040283529160200191612e18565b820191906000526020600020905b815481529060010190602001808311612dfb57829003601f168201915b5050509183525050600282810180546040805160206001841615610100026000190190931694909404601f81018390048302850183019091528084529381019390830182828015612eaa5780601f10612e7f57610100808354040283529160200191612eaa565b820191906000526020600020905b815481529060010190602001808311612e8d57829003601f168201915b505050505081526020016003820160009054906101000a900462ffffff1662ffffff1662ffffff168152505090506040518060a0016040528089600160a060020a031681526020018567ffffffffffffffff1681526020018881526020018781526020018662ffffff16815250600860008a600160a060020a0316600160a060020a0316815260200190815260200160002060008201518160000160006101000a815481600160a060020a030219169083600160a060020a0316021790555060208201518160000160146101000a81548167ffffffffffffffff021916908367ffffffffffffffff1602179055506040820151816001019080519060200190612fb4929190614b40565b5060608201518051612fd0916002840191602090910190614b40565b50608091909101516003909101805462ffffff191662ffffff909216919091179055610fb68784846130a0565b600160a060020a038083166000908152600760209081526040808320938516835260028401909152902054600160ff9091161061303957600080fd5b6003810180546001810180835560009283526020808420909201805473ffffffffffffffffffffffffffffffffffffffff1916600160a060020a03969096169586179055938252600290920190915260409020805460ff191660ff90921691909117905550565b3360009081526002602052604090206130b7614af9565b33600090815260086020908152604091829020825160a0810184528154600160a060020a038116825274010000000000000000000000000000000000000000900467ffffffffffffffff1681840152600180830180548651600261010094831615949094026000190190911692909204601f810186900486028301860187528083529295939493860193919290918301828280156131965780601f1061316b57610100808354040283529160200191613196565b820191906000526020600020905b81548152906001019060200180831161317957829003601f168201915b5050509183525050600282810180546040805160206001841615610100026000190190931694909404601f810183900483028501830190915280845293810193908301828280156132285780601f106131fd57610100808354040283529160200191613228565b820191906000526020600020905b81548152906001019060200180831161320b57829003601f168201915b50505091835250506003919091015462ffffff166020918201526040805161010081018252888152606084810151828501528484015167ffffffffffffffff1682840152339082018190526080820188905260a0820189905282516000808252818601855260c08401919091528351818152808601855260e0840152908152600284529190912081518051949550919390926132c8928492910190614b40565b5060208281015180516132e19260018501920190614b40565b5060408201516002820180546060850151600160a060020a031668010000000000000000027fffffffff0000000000000000000000000000000000000000ffffffffffffffff67ffffffffffffffff90941667ffffffffffffffff19909216919091179290921691909117905560808201518051613369916003840191602090910190614b40565b5060a08201518051613385916004840191602090910190614b40565b5060c082015180516133a1916005840191602090910190614c56565b5060e082015180516133bd916006840191602090910190614be8565b509050507ff0c358f29581a43889abe78660babebd0ac62878d0ed89571af6c2168bbcda0c336040516133f09190615444565b60405180910390a15050505050565b60008061340a614a58565b3360009081526002602081815260409283902083518154610120601f6000196001841615610100908102919091019093169690960495860185900490940282018401909552938401838152909284928491908401828280156134ad5780601f10613482576101008083540402835291602001916134ad565b820191906000526020600020905b81548152906001019060200180831161349057829003601f168201915b50505050508152602001600182018054600181600116156101000203166002900480601f01602080910402602001604051908101604052809291908181526020018280546001816001161561010002031660029004801561354f5780601f106135245761010080835404028352916020019161354f565b820191906000526020600020905b81548152906001019060200180831161353257829003601f168201915b505050918352505060028281015467ffffffffffffffff811660208085019190915268010000000000000000909104600160a060020a031660408085019190915260038501805482516101006001831615026000190190911694909404601f8101849004840285018401909252818452606090940193918301828280156136175780601f106135ec57610100808354040283529160200191613617565b820191906000526020600020905b8154815290600101906020018083116135fa57829003601f168201915b505050918352505060048201805460408051602060026001851615610100026000190190941693909304601f81018490048402820184019092528181529382019392918301828280156136ab5780601f10613680576101008083540402835291602001916136ab565b820191906000526020600020905b81548152906001019060200180831161368e57829003601f168201915b505050505081526020016005820180548060200260200160405190810160405280929190818152602001828054801561370357602002820191906000526020600020905b8154815260200190600101908083116136ef575b505050505081526020016006820180548060200260200160405190810160405280929190818152602001828054801561376557602002820191906000526020600020905b8154600160a060020a03168152600190910190602001808311613747575b5050505050815250509050613778614af9565b33600090815260086020908152604091829020825160a0810184528154600160a060020a038116825274010000000000000000000000000000000000000000900467ffffffffffffffff1681840152600180830180548651600261010094831615949094026000190190911692909204601f810186900486028301860187528083529295939493860193919290918301828280156138575780601f1061382c57610100808354040283529160200191613857565b820191906000526020600020905b81548152906001019060200180831161383a57829003601f168201915b5050509183525050600282810180546040805160206001841615610100026000190190931694909404601f810183900483028501830190915280845293810193908301828280156138e95780601f106138be576101008083540402835291602001916138e9565b820191906000526020600020905b8154815290600101906020018083116138cc57829003601f168201915b50505091835250506003919091015462ffffff1660209182015281015190915067ffffffffffffffff8681169116141561392d575060600151600192509050613939565b50606001516000925090505b915091565b60606000606080606033613950614ab0565b600160a060020a0382166000908152600160208181526040928390208351815460029481161561010002600019011693909304601f8101839004909202830160e090810190945260c0830182815292939092849290918491908401828280156139fa5780601f106139cf576101008083540402835291602001916139fa565b820191906000526020600020905b8154815290600101906020018083116139dd57829003601f168201915b5050509183525050600182810154600160a060020a0381166020808501919091527401000000000000000000000000000000000000000090910467ffffffffffffffff166040808501919091526002808601805483516101009682161596909602600019011691909104601f810184900484028501840190925281845260609094019391830182828015613acf5780601f10613aa457610100808354040283529160200191613acf565b820191906000526020600020905b815481529060010190602001808311613ab257829003601f168201915b505050918352505060038201805460408051602060026001851615610100026000190190941693909304601f8101849004840282018401909252818152938201939291830182828015613b635780601f10613b3857610100808354040283529160200191613b63565b820191906000526020600020905b815481529060010190602001808311613b4657829003601f168201915b5050505050815260200160048201805480602002602001604051908101604052809291908181526020018280548015613bc557602002820191906000526020600020905b8154600160a060020a03168152600190910190602001808311613ba7575b50505050508152505090506000600160a060020a03168160200151600160a060020a031611613bf357600080fd5b613bfb614ab0565b336000908152600160208181526040928390208351815460029481161561010002600019011693909304601f8101839004909202830160e090810190945260c083018281529293909284929091849190840182828015613c9c5780601f10613c7157610100808354040283529160200191613c9c565b820191906000526020600020905b815481529060010190602001808311613c7f57829003601f168201915b5050509183525050600182810154600160a060020a0381166020808501919091527401000000000000000000000000000000000000000090910467ffffffffffffffff166040808501919091526002808601805483516101009682161596909602600019011691909104601f810184900484028501840190925281845260609094019391830182828015613d715780601f10613d4657610100808354040283529160200191613d71565b820191906000526020600020905b815481529060010190602001808311613d5457829003601f168201915b505050918352505060038201805460408051602060026001851615610100026000190190941693909304601f8101849004840282018401909252818152938201939291830182828015613e055780601f10613dda57610100808354040283529160200191613e05565b820191906000526020600020905b815481529060010190602001808311613de857829003601f168201915b5050505050815260200160048201805480602002602001604051908101604052809291908181526020018280548015613e6757602002820191906000526020600020905b8154600160a060020a03168152600190910190602001808311613e49575b5050509190925250508151602083015160a08401516060850151608090950151929d919c509a50929850965090945050505050565b6000606080613ea9614bbe565b3360009081526006602090815260409182902082516060810184528154600160a060020a03168152600180830180548651600261010094831615949094026000190190911692909204601f8101869004860283018601909652858252919492938581019391929190830182828015613f625780601f10613f3757610100808354040283529160200191613f62565b820191906000526020600020905b815481529060010190602001808311613f4557829003601f168201915b5050509183525050600282810180546040805160206001841615610100026000190190931694909404601f81018390048302850183019091528084529381019390830182828015611f985780601f10613fc957610100808354040283529160200191611f98565b820191906000526020600020905b815481529060010190602001808311613fd75750505091909252505081516020830151604090930151909792965094509092505050565b600080614019614ab0565b336000908152600160208181526040928390208351815460029481161561010002600019011693909304601f8101839004909202830160e090810190945260c0830182815292939092849290918491908401828280156140ba5780601f1061408f576101008083540402835291602001916140ba565b820191906000526020600020905b81548152906001019060200180831161409d57829003601f168201915b5050509183525050600182810154600160a060020a0381166020808501919091527401000000000000000000000000000000000000000090910467ffffffffffffffff166040808501919091526002808601805483516101009682161596909602600019011691909104601f81018490048402850184019092528184526060909401939183018282801561418f5780601f106141645761010080835404028352916020019161418f565b820191906000526020600020905b81548152906001019060200180831161417257829003601f168201915b505050918352505060038201805460408051602060026001851615610100026000190190941693909304601f81018490048402820184019092528181529382019392918301828280156142235780601f106141f857610100808354040283529160200191614223565b820191906000526020600020905b81548152906001019060200180831161420657829003601f168201915b505050505081526020016004820180548060200260200160405190810160405280929190818152602001828054801561428557602002820191906000526020600020905b8154600160a060020a03168152600190910190602001808311614267575b5050505050815250509050614298614af9565b33600090815260096020908152604091829020825160a0810184528154600160a060020a038116825274010000000000000000000000000000000000000000900467ffffffffffffffff1681840152600180830180548651600261010094831615949094026000190190911692909204601f810186900486028301860187528083529295939493860193919290918301828280156143775780601f1061434c57610100808354040283529160200191614377565b820191906000526020600020905b81548152906001019060200180831161435a57829003601f168201915b5050509183525050600282810180546040805160206001841615610100026000190190931694909404601f810183900483028501830190915280845293810193908301828280156144095780601f106143de57610100808354040283529160200191614409565b820191906000526020600020905b8154815290600101906020018083116143ec57829003601f168201915b50505091835250506003919091015462ffffff1660209182015281015190915067ffffffffffffffff8681169116141561444d575060200151600192509050613939565b5060200151600092509050613939565b60008054600160a060020a0316331461447557600080fd5b50600054600160a060020a03165b90565b60608060006060614495614a58565b600160a060020a03861660009081526002602081815260409283902083518154610120601f6000196001841615610100908102919091019093169690960495860185900490940282018401909552938401838152909284928491908401828280156145415780601f1061451657610100808354040283529160200191614541565b820191906000526020600020905b81548152906001019060200180831161452457829003601f168201915b50505050508152602001600182018054600181600116156101000203166002900480601f0160208091040260200160405190810160405280929190818152602001828054600181600116156101000203166002900480156145e35780601f106145b8576101008083540402835291602001916145e3565b820191906000526020600020905b8154815290600101906020018083116145c657829003601f168201915b505050918352505060028281015467ffffffffffffffff811660208085019190915268010000000000000000909104600160a060020a031660408085019190915260038501805482516101006001831615026000190190911694909404601f8101849004840285018401909252818452606090940193918301828280156146ab5780601f10614680576101008083540402835291602001916146ab565b820191906000526020600020905b81548152906001019060200180831161468e57829003601f168201915b505050918352505060048201805460408051602060026001851615610100026000190190941693909304601f810184900484028201840190925281815293820193929183018282801561473f5780601f106147145761010080835404028352916020019161473f565b820191906000526020600020905b81548152906001019060200180831161472257829003601f168201915b505050505081526020016005820180548060200260200160405190810160405280929190818152602001828054801561479757602002820191906000526020600020905b815481526020019060010190808311614783575b50505050508152602001600682018054806020026020016040519081016040528092919081815260200182805480156147f957602002820191906000526020600020905b8154600160a060020a031681526001909101906020018083116147db575b50505091909252505081516020808401516060850151600160a060020a038c166000908152600584526040808220805482518188028101880190935280835298995095979396509194939192849290919084015b82821015614a425760008481526020908190206040805160038602909201805460026001821615610100026000190190911604601f81018590049094028301608090810190925260608301848152929390928492909184918401828280156148f65780601f106148cb576101008083540402835291602001916148f6565b820191906000526020600020905b8154815290600101906020018083116148d957829003601f168201915b50505050508152602001600182018054600181600116156101000203166002900480601f0160208091040260200160405190810160405280929190818152602001828054600181600116156101000203166002900480156149985780601f1061496d57610100808354040283529160200191614998565b820191906000526020600020905b81548152906001019060200180831161497b57829003601f168201915b5050509183525050600282810180546040805160206001841615610100026000190190931694909404601f81018390048302850183019091528084529381019390830182828015614a2a5780601f106149ff57610100808354040283529160200191614a2a565b820191906000526020600020905b815481529060010190602001808311614a0d57829003601f168201915b5050505050815250508152602001906001019061484d565b5050505090509450945094509450509193509193565b6040518061010001604052806060815260200160608152602001600067ffffffffffffffff1681526020016000600160a060020a03168152602001606081526020016060815260200160608152602001606081525090565b6040518060c00160405280606081526020016000600160a060020a03168152602001600067ffffffffffffffff1681526020016060815260200160608152602001606081525090565b6040518060a001604052806000600160a060020a03168152602001600067ffffffffffffffff1681526020016060815260200160608152602001600062ffffff1681525090565b828054600181600116156101000203166002900490600052602060002090601f016020900481019282601f10614b8157805160ff1916838001178555614bae565b82800160010185558215614bae579182015b82811115614bae578251825591602001919060010190614b93565b50614bba929150614c90565b5090565b60405180606001604052806000600160a060020a0316815260200160608152602001606081525090565b828054828255906000526020600020908101928215614c4a579160200282015b82811115614c4a578251825473ffffffffffffffffffffffffffffffffffffffff1916600160a060020a03909116178255602090920191600190910190614c08565b50614bba929150614caa565b828054828255906000526020600020908101928215614bae5791602002820182811115614bae578251825591602001919060010190614b93565b61448391905b80821115614bba5760008155600101614c96565b61448391905b80821115614bba57805473ffffffffffffffffffffffffffffffffffffffff19168155600101614cb0565b8035614ce6816157b6565b92915050565b600082601f830112614cfd57600080fd5b8135614d10614d0b826156e2565b6156bb565b91508082526020830160208301858383011115614d2c57600080fd5b614d37838284615770565b50505092915050565b8035614ce6816157cd565b8035614ce6816157d6565b600060208284031215614d6857600080fd5b6000614d748484614cdb565b949350505050565b60008060408385031215614d8f57600080fd5b6000614d9b8585614cdb565b9250506020614dac85828601614cdb565b9150509250929050565b60008060408385031215614dc957600080fd5b6000614dd58585614cdb565b925050602083013567ffffffffffffffff811115614df257600080fd5b614dac85828601614cec565b600080600060608486031215614e1357600080fd5b6000614e1f8686614cdb565b935050602084013567ffffffffffffffff811115614e3c57600080fd5b614e4886828701614cec565b925050604084013567ffffffffffffffff811115614e6557600080fd5b614e7186828701614cec565b9150509250925092565b60008060008060808587031215614e9157600080fd5b6000614e9d8787614cdb565b945050602085013567ffffffffffffffff811115614eba57600080fd5b614ec687828801614cec565b935050604085013567ffffffffffffffff811115614ee357600080fd5b614eef87828801614cec565b925050606085013567ffffffffffffffff811115614f0c57600080fd5b614f1887828801614cec565b91505092959194509250565b600080600080600080600060e0888a031215614f3f57600080fd5b6000614f4b8a8a614cdb565b975050602088013567ffffffffffffffff811115614f6857600080fd5b614f748a828b01614cec565b965050604088013567ffffffffffffffff811115614f9157600080fd5b614f9d8a828b01614cec565b9550506060614fae8a828b01614d40565b9450506080614fbf8a828b01614d4b565b93505060a088013567ffffffffffffffff811115614fdc57600080fd5b614fe88a828b01614cec565b92505060c088013567ffffffffffffffff81111561500557600080fd5b6150118a828b01614cec565b91505092959891949750929550565b60008060006060848603121561503557600080fd5b833567ffffffffffffffff81111561504c57600080fd5b614e1f86828701614cec565b60006020828403121561506a57600080fd5b6000614d748484614d4b565b600061508283836150b8565b505060200190565b600061508283836151df565b60006150a283836153ca565b9392505050565b6150b28161575f565b82525050565b6150b28161572e565b60006150cc8261571c565b6150d68185615720565b93506150e18361570a565b8060005b8381101561510f5781516150f98882615076565b97506151048361570a565b9250506001016150e5565b509495945050505050565b60006151258261571c565b61512f8185615720565b935061513a8361570a565b8060005b8381101561510f578151615152888261508a565b975061515d8361570a565b92505060010161513e565b60006151738261571c565b61517d8185615720565b93508360208202850161518f8561570a565b8060005b858110156151c957848403895281516151ac8582615096565b94506151b78361570a565b60209a909a0199925050600101615193565b5091979650505050505050565b6150b281615739565b6150b281614483565b60006151f38261571c565b6151fd8185615720565b935061520d81856020860161577c565b615216816157ac565b9093019392505050565b600061522b8261571c565b6152358185615729565b935061524581856020860161577c565b9290920192915050565b60008154600181166000811461526c5760018114615292576152d1565b607f600283041661527d8187615720565b60ff19841681529550506020850192506152d1565b600282046152a08187615720565b95506152ab85615710565b60005b828110156152ca578154888201526001909101906020016152ae565b8701945050505b505092915050565b60006152e6601483615720565b7f5265676973746572656420617320446f63746f72000000000000000000000000815260200192915050565b600061531f601583615720565b7f526567697374657265642061732050617469656e740000000000000000000000815260200192915050565b6000615358601883615720565b7f4772616e7465642061636365737320746f20646f63746f720000000000000000815260200192915050565b6000615391601883615720565b7f5265766f6b656420616363657373206f6620646f63746f720000000000000000815260200192915050565b6000614ce6600083615729565b80516060808452600091908401906153e282826151e8565b915050602083015184820360208601526153fc82826151e8565b9150506040830151848203604086015261541682826151e8565b95945050505050565b60006150a28284615220565b6000614ce6826153bd565b60208101614ce682846150b8565b6040810161545282846150a9565b81810360208301526150a281615312565b6080810161547182866150a9565b81810360208301526154828161534b565b90508181036040830152615496818561524f565b9050614d7460608301846150b8565b608081016154b382866150a9565b818103602083015261548281615384565b606081016154d282866150b8565b81810360208301526154e481856151e8565b9050818103604083015261541681846150c1565b6060810161550682866150b8565b818103602083015261551881856151e8565b9050818103604083015261541681846151e8565b6040810161553a82846150b8565b81810360208301526150a2816152d9565b602080825281016150a28184615168565b6040810161556a82856151d6565b6150a260208301846150b8565b60a0808252810161558881886151e8565b905061559760208301876150b8565b81810360408301526155a981866150c1565b905081810360608301526155bd81856151e8565b905081810360808301526155d181846151e8565b979650505050505050565b60e080825281016155ed818a6151e8565b90506155fc60208301896150b8565b818103604083015261560e81886151e8565b90508181036060830152615622818761511a565b9050818103608083015261563681866150c1565b905081810360a083015261564a81856151e8565b905081810360c083015261565e81846151e8565b9998505050505050505050565b6080808252810161567c81876151e8565b9050818103602083015261569081866151e8565b905061569f60408301856150b8565b81810360608301526156b18184615168565b9695505050505050565b60405181810167ffffffffffffffff811182821017156156da57600080fd5b604052919050565b600067ffffffffffffffff8211156156f957600080fd5b506020601f91909101601f19160190565b60200190565b60009081526020902090565b5190565b90815260200190565b919050565b6000614ce68261573e565b151590565b600160a060020a031690565b62ffffff1690565b67ffffffffffffffff1690565b6000614ce6826000614ce68261572e565b82818337506000910152565b60005b8381101561579757818101518382015260200161577f565b838111156157a6576000848401525b50505050565b601f01601f191690565b6157bf8161572e565b81146157ca57600080fd5b50565b6157bf8161574a565b6157bf8161575256fea365627a7a7231582090644b67af1b8ddd1c1cc959dcc4aa78c1aa82be42d498f6ad3f093ca4be3b586c6578706572696d656e74616cf564736f6c63430005110040",
  "source": "// SPDX-License-Identifier: MIT\npragma solidity >=0.4.21;\npragma experimental ABIEncoderV2;\n\n\ncontract optimized_healthCare {\n\n  address private owner;\n  mapping (address => doctor) private doctors;\n  \n  mapping (address => patient) private patients; //mapping patients to their addresses\n  mapping (address => mapping (address => uint16)) private patientToDoctor; //patients and list of doctors allowed access to\n  mapping (address => mapping (bytes32 => uint16)) private patientToFile; //files mapped to patients\n  mapping (address => files[]) private patientFiles;\n  mapping (address => hospital) private hospitals;\n  mapping (address => insuranceComp) insuranceCompanies;\n  // mapping (address => doctorAddedFiles[]) private doctorAddedPatientFiles;\n  // mapping (address => doctorOfferedConsultation[]) private doctorOfferedConsultationList;\n  mapping (address => adhaar) patient_adhaar_info;\n  mapping (address => adhaar) doctor_adhaar_info;\n\n\n  struct adhaar{\n    address id;\n    uint64 adhaar_number;\n    string name;\n    string DOB;\n    uint24 pincode;\n  }\n\n  //structure of patient file\n  struct files{\n      string file_name;\n      string file_type;\n      string file_hash;\n  }\n  \n  //structure of hospital\n  struct hospital{\n    address id;  \n    string name;\n    string location;\n  }\n  \n  //structure of Insurance companies\n  struct insuranceComp{\n    address id;  \n    string name;\n    mapping (address => uint8) regPatientsMapping;\n    address[] regPatients;\n  }\n  \n\n  //structure of patient info\n  struct patient {\n    string name;\n    string DOB;\n    uint64 adhaar_number;\n    address id;\n    string gender;\n    string contact_info;\n\n    bytes32[] files;// hashes of file that belong to this user for display purpose\n    address[] doctor_list;\n  }\n  \n \n  //structure of doctor info\n  struct doctor {\n      string name;\n      address id;\n      uint64 adhaar_number;\n      string contact;\n      string specialization;\n      address[] patient_list;\n  }\n\n  //setting the owner\n  constructor() public {\n    owner = 0xf555E841808055fFbC898cB9C334D9dF127386A5;\n  }\n  \n  //verify doctor \n  modifier checkDoctor(address id) {\n    doctor memory d = doctors[id];\n    require(d.id > address(0x0));//check if doctor exist\n    _;\n  }\n  \n  //verify patient\n  modifier checkPatient(address id) {\n    patient memory p = patients[id];\n    require(p.id > address(0x0));//check if patient exist\n    _;\n  }\n\n \n  //owner verification modifier\n  modifier onlyOwner() {\n    require(msg.sender == owner);\n    _;\n  }\n   \n\n\n  function hospitalSignUp(address _id, string memory _name, string memory _location ) public onlyOwner() {\n    \n    hospital memory h= hospitals[_id];\n    require(!(h.id > address(0x0)));\n    require(keccak256(abi.encodePacked(_name)) != keccak256(\"\"));\n    hospitals[_id] = hospital({id:_id, name:_name, location: _location});\n  }\n\n  //Event to emit when new patient registers\n  event patientSignUp( address _patient, string message);\n\n  function signupPatient(string memory _name, string memory _contact, string memory _gender) public {\n\n    //search for patient on blockchain by address \n    patient storage p = patients[msg.sender];\n    adhaar memory a = patient_adhaar_info[msg.sender];\n    //Check if the patient already exists by address\n   // require(!(p.id > address(0x0)),\"pid invaIid\");\n    //Add patient to blockchain\n    //require(a.adhaar_number > 0,\"addhar number err0r\");\n\n    patients[msg.sender] = patient({name:_name, DOB: a.DOB, id:msg.sender, adhaar_number: a.adhaar_number, gender:_gender, contact_info:_contact, files:new bytes32[](0), doctor_list:new address[](0)});\n    \n\n    emit patientSignUp( msg.sender, \"Registered as Patient\");\n  }\n  \n\n  //Event to emit when new doctor registers\n  event doctorSignUp(address _doctor, string message);\n\n  function signupDoctor(address _id, string memory _name, string memory _contact, string memory _specialization) public {\n\n      //search for doctor on blockchain\n      doctor storage d = doctors[_id];\n      adhaar memory a = doctor_adhaar_info[_id];\n      //check name of doctor\n     // require(keccak256(abi.encodePacked(_name)) != keccak256(\"\"));\n      //check if doctor already exists\n      //require(!(d.id > address(0x0)));\n\n      //require(a.adhaar_number > 0);\n      //Add the doctor to blockchain\n      doctors[_id] = doctor({name:_name, id:_id, contact:_contact, adhaar_number: a.adhaar_number, specialization: _specialization, patient_list:new address[](0)});\n     \n      emit doctorSignUp(_id, \"Registered as Doctor\");\n  }\n\n\n  //Event to emit when patient grants access to doctor\n  event grantDoctorAccess( address patient_address, string message, string _doctor, address doctor_address);\n  \n  function grantAccessToDoctor(address doctor_id) public checkPatient(msg.sender) checkDoctor(doctor_id) {\n      \n      patient storage p = patients[msg.sender];\n      doctor storage d = doctors[doctor_id];\n     // require(patientToDoctor[msg.sender][doctor_id] < 1);// this means doctor already been access\n      \n      uint16 pos = (uint16)(p.doctor_list.push(doctor_id));// new length of array\n      \n      patientToDoctor[msg.sender][doctor_id] = pos;\n      d.patient_list.push(msg.sender);\n\n   \n      \n      emit grantDoctorAccess( msg.sender , \"Granted access to doctor\", d.name , doctor_id);\n  }\n\n  //Event to emit when patient revokes a doctor's access\n  event revokeDoctorAccess(address patient_address, string message, string _doctor, address doctor_address);\n\n  function revokeAccessFromDoctor(address doctor_id) public checkPatient(msg.sender){\n    require(patientToDoctor[msg.sender][doctor_id] > 0);\n    patientToDoctor[msg.sender][doctor_id] = 0;\n\n\n    patient storage p = patients[msg.sender];\n    doctor storage d = doctors[doctor_id];\n\n    uint16 pdlength= (uint16)(p.doctor_list.length);\n    uint16 pos=0;\n\n    for (uint16 i = 0; i < pdlength; i++) {\n      if(p.doctor_list[i] == doctor_id)\n      {\n        pos=i;\n        break;\n      }\n    }\n\n    for(;pos<pdlength-1;pos++)\n    {\n      p.doctor_list[pos]= p.doctor_list[pos+1];\n    }\n\n    p.doctor_list.pop();\n\n    pdlength= (uint16)(d.patient_list.length);\n    pos=0;\n\n    for (uint16 i = 0; i < pdlength; i++) {\n      if(d.patient_list[i] == msg.sender)\n      {\n        pos=i;\n        break;\n      }\n    }\n\n    for(;pos<pdlength-1;pos++)\n    {\n      d.patient_list[pos]= d.patient_list[pos+1];\n    }\n\n    d.patient_list.pop();\n\n    emit revokeDoctorAccess(msg.sender, \"Revoked access of doctor\", d.name, doctor_id);\n  }\n  \n\n\n  function addUserFiles(string memory _file_name, string memory _file_type,string memory _file_hash) public{\n\n    patientFiles[msg.sender].push(files({file_name:_file_name, file_type:_file_type,file_hash:_file_hash}));\n\n  }\n\n\n  function getUserFiles(address sender)public view returns(files[] memory){\n      return patientFiles[sender];\n  }\n\n\n\n  function getPatientInfo() public view checkPatient(msg.sender) returns(string memory,address, string memory, bytes32[] memory , address[] memory, string memory, string memory) {\n    patient memory p = patients[msg.sender];\n    require(p.id>address(0x0));\n    return (p.name, p.id, p.DOB, p.files, p.doctor_list, p.gender, p.contact_info );\n  }\n\n\n\n  function getDoctorInfo() public view checkDoctor(msg.sender) returns(string memory, address, address[] memory, string memory, string memory) {\n      doctor memory d = doctors[msg.sender];\n\n      return (d.name, d.id, d.patient_list, d.contact, d.specialization);\n  }\n  \n  function checkDoctorInfo(uint64 _adhaar_number) public view returns(bool, address) {\n    \n    doctor memory d = doctors[msg.sender];\n    adhaar memory a = doctor_adhaar_info[msg.sender];\n    if (a.adhaar_number == _adhaar_number){\n      return (true, d.id);\n    }\n\n    else \n      return (false, d.id);\n\n  }\n\n  function checkPatientInfo(uint64 _adhaar_number) public view returns(bool, address) {\n    patient memory p = patients[msg.sender];\n    adhaar memory a = patient_adhaar_info[msg.sender];\n    if (a.adhaar_number == _adhaar_number){\n      return (true,p.id);\n    }\n\n    else \n      return (false,p.id);\n\n  }\n  \n  \n  function getPatientInfoForDoctor(address pat) public view returns(string memory, string memory, address, files[] memory){\n      patient memory p = patients[pat];\n      return (p.name, p.DOB, p.id, patientFiles[pat]);\n    }\n\n  function getHospitalInfo() public view returns(address, string memory, string memory)\n  {\n    hospital memory h = hospitals[msg.sender];\n   // require(h.id!=address(0x0));\n    return (h.id, h.name, h.location);\n  }\n\n  function getOwnerInfo() public view  onlyOwner() returns(address)\n  {\n    return (owner);\n  }\n\n  function hospitalGrantAccess(address _user, address _patient) public checkPatient(_patient)\n  {\n    doctor storage d = doctors[_user];\n    patient storage p = patients[_patient];\n    if(d.id > address(0x0))\n    {\n      //require(patientToDoctor[_patient][_user] < 1);// this means doctor already been access\n      \n      uint16 pos = (uint16)(p.doctor_list.push(_user));// new length of array\n      \n      patientToDoctor[_patient][_user] = pos;\n      d.patient_list.push(_patient);    \n    }\n  }\n\n  function addHospital(address _id, string memory _name, string memory _location) public onlyOwner(){\n    hospital memory h = hospitals[_id];\n    require(!(h.id > address(0x0)));\n    hospitals[_id] = hospital({id:_id, name:_name, location:_location});\n  }\n \n  function regInsuranceComp(address _id, string memory _name) public onlyOwner() {\n    insuranceComp memory i= insuranceCompanies[_id];\n    require(!(i.id> address(0x0)));\n    insuranceCompanies[_id] = insuranceComp({id:_id, name:_name, regPatients: new address[](0)});\n  } \n\n  function getInsuranceCompInfo() public view returns(address,string memory, address[] memory){\n    insuranceComp memory i= insuranceCompanies[msg.sender];\n    return(i.id,i.name,i.regPatients);\n  }\n\n  function addPatientToInsuranceComp(address _insuranceComp, address _pat) public{\n    insuranceComp storage i = insuranceCompanies[_insuranceComp];\n    require(i.regPatientsMapping[_pat]<1);\n    uint8 pos=(uint8)(i.regPatients.push(_pat));\n    i.regPatientsMapping[_pat]=pos;\n  }\n\n\n\n  function addDoctorAdhaarInfo(address _doc, string memory _name, string memory _DOB, uint24 _pincode, uint64 _adhaar_number,string memory _contact, string memory _gender) public {\n    adhaar memory a = doctor_adhaar_info[_doc];\n    //require(a.adhaar_number == 0,\"aadhar err\");\n    doctor_adhaar_info[_doc] = adhaar({id:_doc, pincode: _pincode, name: _name, DOB: _DOB, adhaar_number: _adhaar_number});\n    signupDoctor(_doc, _name, _contact, \"\");\n  }\n\n  function addPatientAdhaarInfo(address _pat, string memory _name, string memory _DOB, uint24 _pincode, uint64 _adhaar_number,string memory _contact, string memory _gender) public {\n    adhaar memory a = patient_adhaar_info[_pat];\n    //(a.adhaar_number == 0,\"aadhar err\");\n    patient_adhaar_info[_pat] = adhaar({id:_pat, pincode: _pincode, name: _name, DOB: _DOB, adhaar_number: _adhaar_number});\n    signupPatient(_name, _contact, _gender);\n  }\n \n  \n  \n}",
  "sourcePath": "C:\\Users\\Shubham Semwal\\EHR-using-Blockchain-master\\contracts\\optimized_healthCare.sol",
  "compiler": {
    "name": "solc",
    "version": "0.5.17+commit.d19bba13.Emscripten.clang"
  },
  "schemaVersion": "3.4.13",
  "updatedAt": "2023-05-14T05:39:44.834Z",
  "networkType": "ethereum",
  "devdoc": {
    "methods": {}
  },
  "userdoc": {
    "methods": {}
  }
}